:020000040800F2
:1000000000500020052E0008691500086B15000837
:100010006D1500086F15000871150008000000003C
:100020000000000000000000000000007315000840
:100030007515000800000000771500087915000804
:100040004D2E00084D2E00084D2E00084D2E0008A4
:100050004D2E00084D2E00084D2E00084D2E000894
:100060004D2E00084D2E00084D2E00084D2E000884
:100070004D2E00084D2E00084D2E00084D2E000874
:100080004D2E00084D2E00084D2E00084D2E000864
:100090004D2E00084D2E00084D2E00084D2E000854
:1000A0004D2E00084D2E00084D2E00084D2E000844
:1000B0004D2E00084D2E00084D2E00084D2E000834
:1000C0004D2E00084D2E00084D2E00084D2E000824
:1000D0004D2E0008811500084D2E00084D2E0008F9
:1000E0004D2E00084D2E00084D2E00080000000087
:1000F0000000000000000000000000000000000000
:0C01000000000000000000005FF808F1A3
:10010C00034613F8012B002AFBD1181A013870474B
:10011C0081F0004102E000BF83F0004330B54FEAAC
:10012C0041044FEA430594EA050F08BF90EA020F19
:10013C001FBF54EA000C55EA020C7FEA645C7FEAAC
:10014C00655C00F0E2804FEA5454D4EB5555B8BFCF
:10015C006D420CDD2C4480EA020281EA030382EA40
:10016C00000083EA010180EA020281EA0303362DD2
:10017C0088BF30BD11F0004F4FEA01314FF4801CA5
:10018C004CEA113102D0404261EB410113F0004FB7
:10019C004FEA03334CEA133302D0524263EB43036E
:1001AC0094EA050F00F0A780A4F10104D5F1200E0C
:1001BC000DDB02FA0EFC22FA05F2801841F1000167
:1001CC0003FA0EF2801843FA05F359410EE0A5F13B
:1001DC0020050EF1200E012A03FA0EFC28BF4CF06C
:1001EC00020C43FA05F3C01851EBE37101F0004522
:1001FC0007D54FF0000EDCF1000C7EEB00006EEB2F
:10020C000101B1F5801F1BD3B1F5001F0CD34908B8
:10021C005FEA30004FEA3C0C04F101044FEA44520F
:10022C0012F5800F80F09A80BCF1004F08BF5FEA96
:10023C00500C50F1000041EB045141EA050130BD76
:10024C005FEA4C0C404141EB0101013C28BFB1F588
:10025C00801FE9D291F0000F04BF01460020B1FAD3
:10026C0081F308BF2033A3F10B03B3F120020CDAA6
:10027C000C3208DD02F1140CC2F10C0201FA0CF084
:10028C0021FA02F10CE002F11402D8BFC2F1200CE9
:10029C0001FA02F120FA0CFCDCBF41EA0C0190409F
:1002AC00E41AA2BF01EB0451294330BD6FEA0404E8
:1002BC001F3C1CDA0C340EDC04F11404C4F12002D3
:1002CC0020FA04F001FA02F340EA030021FA04F3E5
:1002DC0045EA030130BDC4F10C04C4F1200220FA3C
:1002EC0002F001FA04F340EA0300294630BD21FA7A
:1002FC0004F0294630BD94F0000F83F4801306BF40
:10030C0081F480110134013D4EE77FEA645C18BF33
:10031C007FEA655C29D094EA050F08BF90EA020FCA
:10032C0005D054EA000C04BF1946104630BD91EAC2
:10033C00030F1EBF0021002030BD5FEA545C05D1C5
:10034C004000494128BF41F0004130BD14F5800404
:10035C003CBF01F5801130BD01F0004545F0FE4178
:10036C0041F470014FF0000030BD7FEA645C1ABFAD
:10037C00194610467FEA655C1CBF0B46024650EAE4
:10038C00013406BF52EA033591EA030F41F4002110
:10039C0030BD00BF90F0000F04BF0021704730B596
:1003AC004FF4806404F132044FF000054FF000016B
:1003BC0050E700BF90F0000F04BF0021704730B52C
:1003CC004FF4806404F1320410F0004548BF404201
:1003DC004FF000013EE700BF42004FEAE2014FEA56
:1003EC0031014FEA02701FBF12F07F4393F07F4F31
:1003FC0081F06051704732F07F4208BF704793F034
:10040C007F4F04BF41F40021704730B54FF4607446
:10041C0001F0004521F000411CE700BF50EA010249
:10042C0008BF704730B54FF000050AE050EA0102F2
:10043C0008BF704730B511F0004502D5404261EB62
:10044C0041014FF4806404F132045FEA915C3FF4A3
:10045C00D8AE4FF003025FEADC0C18BF03325FEA40
:10046C00DC0C18BF033202EBDC02C2F1200300FAF1
:10047C0003FC20FA02F001FA03FE40EA0E0021FA16
:10048C0002F11444BDE600BF70B54FF0FF0C4CF404
:10049C00E06C1CEA11541DBF1CEA135594EA0C0FB6
:1004AC0095EA0C0F00F0DEF82C4481EA030621EAF1
:1004BC004C5123EA4C5350EA013518BF52EA03352C
:1004CC0041F4801143F4801338D0A0FB02CE4FF0DE
:1004DC000005E1FB02E506F00042E0FB03E54FF00E
:1004EC000006E1FB03569CF0000F18BF4EF0010E06
:1004FC00A4F1FF04B6F5007F64F5407404D25FEA02
:10050C004E0E6D4146EB060642EAC62141EA5551B4
:10051C004FEAC52040EA5E504FEACE2EB4F1FD0CF6
:10052C0088BFBCF5E06F1ED8BEF1004F08BF5FEA74
:10053C00500E50F1000041EB045170BD06F0004626
:10054C0046EA010140EA020081EA0301B4EB5C04D3
:10055C00C2BFD4EB0C0541EA045170BD41F48011CB
:10056C004FF0000E013C00F3AB8014F1360FDEBFF0
:10057C00002001F0004170BDC4F10004203C35DACC
:10058C000C341BDC04F11404C4F1200500FA05F34F
:10059C0020FA04F001FA05F240EA020001F00042F0
:1005AC0021F0004110EBD37021FA04F642EB060166
:1005BC005EEA430E08BF20EAD37070BDC4F10C0490
:1005CC00C4F1200500FA04F320FA05F001FA04F254
:1005DC0040EA020001F0004110EBD37041F1000140
:1005EC005EEA430E08BF20EAD37070BDC4F120054B
:1005FC0000FA05F24EEA020E20FA04F301FA05F2B3
:10060C0043EA020321FA04F001F0004121FA04F25A
:10061C0020EA020000EBD3705EEA430E08BF20EA2A
:10062C00D37070BD94F0000F0FD101F00046400064
:10063C0041EB010111F4801F08BF013CF7D041EAE6
:10064C00060195F0000F18BF704703F000465200EA
:10065C0043EB030313F4801F08BF013DF7D043EABB
:10066C000603704794EA0C0F0CEA135518BF95EA71
:10067C000C0F0CD050EA410618BF52EA4306D1D1F8
:10068C0081EA030101F000414FF0000070BD50EA17
:10069C00410606BF1046194652EA430619D094EAA1
:1006AC000C0F02D150EA013613D195EA0C0F05D18B
:1006BC0052EA03361CBF104619460AD181EA0301DF
:1006CC0001F0004141F0FE4141F470014FF0000097
:1006DC0070BD41F0FE4141F4780170BD70B54FF032
:1006EC00FF0C4CF4E06C1CEA11541DBF1CEA1355B2
:1006FC0094EA0C0F95EA0C0F00F0A7F8A4EB050494
:10070C0081EA030E52EA03354FEA013100F088808A
:10071C004FEA03334FF0805545EA131343EA126353
:10072C004FEA022245EA111545EA10654FEA002608
:10073C000EF000419D4208BF964244F1FD0404F5C1
:10074C00407402D25B084FEA3202B61A65EB03051D
:10075C005B084FEA32024FF480104FF4002CB6EBDA
:10076C00020E75EB030E22BFB61A754640EA0C005A
:10077C005B084FEA3202B6EB020E75EB030E22BF9A
:10078C00B61A754640EA5C005B084FEA3202B6EBDB
:10079C00020E75EB030E22BFB61A754640EA9C009A
:1007AC005B084FEA3202B6EB020E75EB030E22BF6A
:1007BC00B61A754640EADC0055EA060E18D04FEA28
:1007CC00051545EA16754FEA06164FEAC30343EAC8
:1007DC0052734FEAC2025FEA1C1CC0D111F4801F95
:1007EC000BD141EA00014FF000004FF0004CB6E78E
:1007FC0011F4801F04BF01430020B4F1FD0C88BF2D
:10080C00BCF5E06F3FF6AFAEB5EB030C04BFB6EB37
:10081C00020C5FEA500C50F1000041EB045170BD2A
:10082C000EF0004E4EEA113114EB5C04C2BFD4EB57
:10083C000C0541EA045170BD41F480114FF0000EDB
:10084C00013C90E645EA060E8DE60CEA135594EA57
:10085C000C0F08BF95EA0C0F3FF43BAF94EA0C0F5A
:10086C000AD150EA01347FF434AF95EA0C0F7FF4CF
:10087C0025AF104619462CE795EA0C0F06D152EA23
:10088C0003353FF4FDAE1046194622E750EA410607
:10089C0018BF52EA43067FF4C5AE50EA41047FF418
:1008AC000DAF52EA43057FF4EBAE12E74FEA41027B
:1008BC00B2F1E04324BFB3F5001CDCF1FE5C0DD9B2
:1008CC0001F0004C4FEAC0024CEA5070B2F1004FFC
:1008DC0040EB830008BF20F00100704711F0804FFF
:1008EC0021D113F13872BCBF01F00040704741F4C4
:1008FC0080114FEA5252C2F11802C2F1200C10FAC8
:10090C000CF320FA02F018BF40F001004FEAC123AB
:10091C004FEAD32303FA0CFC40EA0C0023FA02F34F
:10092C004FEA4303CCE77FEA625307D150EA013325
:10093C001EBF4FF0FE4040F44000704701F00040F5
:10094C0040F0FE4040F40000704700BF80F00040D3
:10095C0002E000BF81F0004142001FBF5FEA41038B
:10096C0092EA030F7FEA226C7FEA236C6AD04FEA8B
:10097C001262D2EB1363C1BFD218414048404140D0
:10098C00B8BF5B42192B88BF704710F0004F40F482
:10099C00000020F07F4018BF404211F0004F41F49E
:1009AC00000121F07F4118BF494292EA030F3FD06A
:1009BC00A2F1010241FA03FC10EB0C00C3F120037D
:1009CC0001FA03F100F0004302D5494260EB40000C
:1009DC00B0F5000F13D3B0F1807F06D340084FEA77
:1009EC00310102F10102FE2A51D2B1F1004F40EB6C
:1009FC00C25008BF20F0010040EA030070474900D4
:100A0C0040EB0000013A28BFB0F5000FEDD2B0FA70
:100A1C0080FCACF1080CB2EB0C0200FA0CF0AABF93
:100A2C0000EBC25052421843BCBFD0401843704731
:100A3C0092F0000F81F4000106BF80F40000013237
:100A4C00013BB5E74FEA41037FEA226C18BF7FEA0E
:100A5C00236C21D092EA030F04D092F0000F08BF50
:100A6C000846704790EA010F1CBF0020704712F037
:100A7C007F4F04D1400028BF40F00040704712F176
:100A8C0000723CBF00F50000704700F0004343F0DB
:100A9C00FE4040F4000070477FEA226216BF084611
:100AAC007FEA23630146420206BF5FEA412390EAD4
:100ABC00010F40F4800070474FF0000304E000BFCA
:100ACC0010F0004348BF40425FEA000C08BF70477B
:100ADC0043F0964301464FF000001CE050EA01023F
:100AEC0008BF70474FF000030AE000BF50EA010254
:100AFC0008BF704711F0004302D5404261EB410141
:100B0C005FEA010C02BF84460146002043F0B64365
:100B1C0008BFA3F18053A3F50003BCFA8CF2083A8A
:100B2C00A3EBC25310DB01FA02FC634400FA02FC93
:100B3C00C2F12002BCF1004F20FA02F243EB02009A
:100B4C0008BF20F00100704702F1200201FA02FCFC
:100B5C00C2F1200250EA4C0021FA02F243EB0200EF
:100B6C0008BF20EADC7070474FF0FF0C1CEAD05233
:100B7C001EBF1CEAD15392EA0C0F93EA0C0F6FD0F4
:100B8C001A4480EA010C400218BF5FEA41211ED0D2
:100B9C004FF0006343EA501043EA5111A0FB0131BE
:100BAC000CF00040B1F5000F3EBF490041EAD37193
:100BBC005B0040EA010062F17F02FD2A1DD8B3F10F
:100BCC00004F40EBC25008BF20F00100704790F07E
:100BDC00000F0CF0004C08BF49024CEA502040EAD0
:100BEC0051207F3AC2BFD2F1FF0340EAC250704796
:100BFC0040F400004FF00003013A5DDC12F1190FD4
:100C0C00DCBF00F000407047C2F10002410021FA45
:100C1C0002F1C2F1200200FA02FC5FEA310040F15D
:100C2C00000053EA4C0308BF20EADC70704792F0D6
:100C3C00000F00F0004C02BF400010F4000F013A0E
:100C4C00F9D040EA0C0093F0000F01F0004C02BF09
:100C5C00490011F4000F013BF9D041EA0C018FE778
:100C6C000CEAD15392EA0C0F18BF93EA0C0F0AD07E
:100C7C0030F0004C18BF31F0004CD8D180EA0100A4
:100C8C0000F00040704790F0000F17BF90F0004F3D
:100C9C00084691F0000F91F0004F14D092EA0C0F1F
:100CAC0001D142020FD193EA0C0F03D14B0218BFB2
:100CBC00084608D180EA010000F0004040F0FE40F8
:100CCC0040F40000704740F0FE4040F44000704794
:100CDC004FF0FF0C1CEAD0521EBF1CEAD15392EA13
:100CEC000C0F93EA0C0F69D0A2EB030280EA010C03
:100CFC0049024FEA402037D04FF0805343EA11119C
:100D0C0043EA10130CF000408B4238BF5B0042F1F9
:100D1C007D024FF4000C8B4224BF5B1A40EA0C009E
:100D2C00B3EB510F24BFA3EB510340EA5C00B3EBD0
:100D3C00910F24BFA3EB910340EA9C00B3EBD10FBE
:100D4C0024BFA3EBD10340EADC001B0118BF5FEA10
:100D5C001C1CE0D1FD2A3FF650AF8B4240EBC25039
:100D6C0008BF20F0010070470CF0004C4CEA5020FA
:100D7C007F32C2BFD2F1FF0340EAC250704740F449
:100D8C0000004FF00003013A37E792F0000F00F03B
:100D9C00004C02BF400010F4000F013AF9D040EAB9
:100DAC000C0093F0000F01F0004C02BF490011F44D
:100DBC00000F013BF9D041EA0C0195E70CEAD15345
:100DCC0092EA0C0F08D142027FF47DAF93EA0C0F2C
:100DDC007FF470AF084676E793EA0C0F04D14B0210
:100DEC003FF44CAF08466EE730F0004C18BF31F0C2
:100DFC00004CCAD130F000427FF45CAF31F00043BC
:100E0C007FF43CAF5FE700BF4FF0FF3C06E000BF54
:100E1C004FF0010C02E000BF4FF0010C4DF804CD77
:100E2C004FEA40024FEA41037FEA226C18BF7FEA87
:100E3C00236C11D001B052EA530C18BF90EA010F89
:100E4C0058BFB2EB030088BFC81738BF6FEAE17018
:100E5C0018BF40F0010070477FEA226C02D15FEAB4
:100E6C00402C05D17FEA236CE4D15FEA412CE1D020
:100E7C005DF8040B704700BF844608466146FFE7E7
:100E8C000FB5FFF7C9FF002848BF10F1000F0FBDC9
:100E9C004DF808EDFFF7F4FF0CBF012000205DF8C2
:100EAC0008FB00BF4DF808EDFFF7EAFF34BF012047
:100EBC0000205DF808FB00BF4DF808EDFFF7E0FFE0
:100ECC0094BF012000205DF808FB00BF4DF808ED31
:100EDC00FFF7D2FF94BF012000205DF808FB00BF94
:100EEC004DF808EDFFF7C8FF34BF012000205DF876
:100EFC0008FB00BF0348044B834202D0034B03B1F1
:100F0C00184770477C0000207C0000200000000087
:100F1C000548064B1B1AD90F01EBA301491002D04F
:100F2C00034B03B1184770477C0000207C00002065
:100F3C000000000010B5064C237843B9FFF7DAFF28
:100F4C00044B13B10448AFF300800123237010BD90
:100F5C007C00002000000000CC37000808B5054BD1
:100F6C001BB105490548AFF30080BDE80840FFF709
:100F7C00CFBF00BF0000000080000020CC3700086D
:100F8C0070B588B004AD00240494059406940794BD
:100F9C00164B9A6942F020029A619A6902F020027B
:100FAC000192019A9A6942F004029A619A6902F0DC
:100FBC0004020292029A9A6942F008029A619B69B1
:100FCC0003F008030393039B094E2246012130468C
:100FDC0001F017F801230493059306940223079359
:100FEC002946304600F0FCFE08B070BD00100240EF
:100FFC00000C0140034B1A6800235362536A83426E
:10100C00FCD370477C0200202DE9F04184B0002411
:10101C0000940194029403944FF4007700974FF0DE
:10102C000108CDF8048002230393284D6946284615
:10103C0000F0D6FE22463946284600F0E2FF40F288
:10104C001450FFF7D7FF42463946284600F0D9FF27
:10105C001E20FFF7CFFF0194CDF808806946284683
:10106C0000F0BEFE2820FFF7C5FF3946284600F0E9
:10107C00C1FF48B1002400F075FB154B186000F05F
:10108C0071FB144B18600FE05020FFF7B3FF39468B
:10109C00284600F0AFFF04460028ECD00124EAE714
:1010AC0000F060FB0B4B18604FF40071074800F028
:1010BC00A1FF30B1064B1B680233064A12689342FB
:1010CC00EED8204604B0BDE8F08100BF000C014012
:1010DC00E0010020DC01002038B500252C4643E05F
:1010EC0000F040FB274B18604FF40071264800F0CD
:1010FC0081FF30B9254B1B680233224A1268934298
:10110C00EED82820FFF776FF4FF400711E4800F050
:10111C0071FF78B9C4F1070201239340DB435BB242
:10112C001D4000F01FFB194B186000F01BFB154B0A
:10113C0018600AE0C4F10702012393402B43DDB28F
:10114C00EFE700F00FFB0F4B18604FF400710E48E7
:10115C0000F050FF30B10D4B1B680233094A126886
:10116C009342EED80134E4B2072C08D800F0FAFA16
:10117C00064B186000F0F6FA024B1860B4E72846EC
:10118C0038BD00BFDC010020000C0140E001002054
:10119C00F8B5FFF739FF00B9F8BDFFF79DFF204DFB
:1011AC002870FFF799FF1F4C2070FFF795FF1E4F1B
:1011BC003870FFF791FF1D4E3070FFF78DFF024620
:1011CC001B4B18702D7824782B19DBB239780B4413
:1011DC00DBB230780344DBB2164E33709A42DBD16B
:1011EC0011F0800F12D140EA0120FFF769FC12497F
:1011FC00FFF76EFD114B186044EA0520FFF760FC09
:10120C000D49FFF765FD0E4B1860C5E7FFF754FC61
:10121C000949FFF75DFD00F10040084B1860EBE752
:10122C00E9010020E8010020E7010020E601002090
:10123C00E5010020E401002000002041D80100203D
:10124C00D401002008B502680F4B9A4200D008BDAB
:10125C000E4B1B78012B10D0002201210C4800F002
:10126C00D0FE0C4A1378B3FA83F35B091370012296
:10127C000649094801F017FDE9E701221146044827
:10128C0000F0BFFEEDE700BF00380140D0010020A8
:10129C00000C0140B40000203402002072B6FEE7BE
:1012AC0000B587B000230293039304930593009336
:1012BC0001931348134A02604722426083604FF641
:1012CC00FF72C2600361836101F02EF890B94FF494
:1012DC008053029302A90A4801F05EF860B900231A
:1012EC00009301936946064801F0D6F830B907B06F
:1012FC005DF804FBFFF7D2FFFFF7D0FFFFF7CEFF3F
:10130C007C0200200008004008B50A480A4B036024
:10131C004FF41653436000238360C36003610C22B7
:10132C0042618361C36101F0D8F900B908BDFFF7D0
:10133C00B5FF00BF340200200038014008B50A4850
:10134C000A4B03604FF41653436000238360C36061
:10135C0003610C2242618361C36101F0BEF900B9E3
:10136C0008BDFFF79BFF00BFEC01002000440040CC
:10137C0010B590B006AC28220021204601F084FD67
:10138C000023019302930393049305930122069285
:10139C004FF4803307930A9202220D920E934FF46E
:1013AC00E0130F93204600F00DFA78B90F23019348
:1013BC0002210291002303934FF48062049205935F
:1013CC0001A800F031FC18B910B010BDFFF766FF92
:1013DC00FFF764FF30B58DB000F0A6F9FFF7C8FF3A
:1013EC00FFF7CEFDFFF75CFFFFF78EFFFFF7A6FFC1
:1013FC00464800F029FF01224549464801F053FCBC
:10140C00454801F063FC5AE0444C454D0FCD0FC4E8
:10141C002B6824F8023B1B0C23704FF400514148FD
:10142C0000F0F5FD3D4D404B1868FEF7D5FFCDE9BA
:10143C000A013E4B1868FEF7CFFFCDE908013C4B83
:10144C001868FEF7C9FFCDE906013A4B1868FEF79C
:10145C00C3FFCDE90401384B1868FEF7BDFFCDE999
:10146C000201364B1868FEF7B7FFCDE90001344A8C
:10147C003449284601F0E6FC334C00232370A023AA
:10148C0063700D23A3702846FEF73AFE02462946E8
:10149C00E01C01F027FD2846FEF732FEC0B2C31C4B
:1014AC00DBB204300A22E2544FF0FF33C2B22146C1
:1014BC00184801F042F94FF4FA7000F059F9FFF7AF
:1014CC0067FE224C204601F01BFC6269194B1A6026
:1014DC006268174B1A602268144B1A60A268124B90
:1014EC001A601B4B1C681B492046FFF7D1FC0028D7
:1014FC008AD1194B1D6817492846FFF7C9FC0028EB
:10150C0082D10E4B1C600C4B1D6086E77C020020C8
:10151C00D001002034020020EC0100203801002012
:10152C00E437000800100140B8010020C001002081
:10153C00BC010020C4010020C8010020CC01002007
:10154C0000000020F8370008B800002098000020A8
:10155C00D801002000C079C4D4010020FEE7FEE7CA
:10156C00FEE7FEE7FEE770477047704708B500F0EE
:10157C00EDF808BD08B5024801F038FA08BD00BF07
:10158C003402002082B00E4B9A6942F001029A613B
:10159C009A6902F001020092009ADA6942F08052D4
:1015AC00DA61DB6903F080530193019B054A5368B0
:1015BC0023F0E06343F00073536002B0704700BF48
:1015CC0000100240000001400268094B9A4200D012
:1015DC00704782B003F50233DA6942F00402DA6133
:1015EC00DB6903F004030193019B02B0704700BF59
:1015FC0000080040F0B589B00023049305930693CE
:10160C0007930368314A934204D0314A934234D051
:10161C0009B0F0BD2F4B9A6942F480429A619A69E5
:10162C0002F480420092009A9A6942F004029A6194
:10163C009B6903F004030193019B4FF40073049323
:10164C00022505950323079304AF234E39463046F4
:10165C0000F0C6FB4FF480630493002405940694B9
:10166C003946304600F0BCFB22462946252000F0C6
:10167C008BFD252000F098FDCAE7164BDA6942F481
:10168C000032DA61DA6902F400320292029A9A6943
:10169C0042F004029A619B6903F004030393039BD9
:1016AC0004230493022305930323079304AD0A4CEC
:1016BC002946204600F094FB08230493002305934D
:1016CC0006932946204600F08BFBA1E70038014029
:1016DC0000440040001002400008014010B50446D0
:1016EC000E4B1A784FF47A73B3FBF2F30C4A106872
:1016FC00B0FBF3F000F066FD68B90F2C01D90120A6
:10170C000AE0002221464FF0FF3000F03DFD054B72
:10171C001C60002000E0012010BD00BF1400002060
:10172C001C0000201800002008B5074A136843F07D
:10173C0010031360032000F015FD0F20FFF7CEFF00
:10174C00FFF720FF002008BD00200240034A11686B
:10175C00034B1B780B441360704700BFC40200207E
:10176C0014000020014B1868704700BFC402002011
:10177C0038B50446FFF7F6FF0546B4F1FF3F02D03B
:10178C00044B1B781C44FFF7EDFF401BA042FAD31F
:10179C0038BD00BF1400002082B0084B1B68084AFB
:1017AC00A2FB03235B0A00FB03F3019300BF019B25
:1017BC005A1E0192002BF9D102B070471C00002078
:1017CC00D34D6210002800F0F18170B582B0044650
:1017DC00036813F0010F2CD0994B5B6803F00C03DA
:1017EC00042B1DD0964B5B6803F00C03082B12D016
:1017FC006368B3F5803F41D0002B55D103F1804392
:10180C0003F504331A6822F480321A601A6822F441
:10181C0080221A6037E08A4B5B6813F4803FE7D074
:10182C00874B1B6813F4003F03D06368002B00F058
:10183C00BF81236813F0020F75D0814B5B6813F0E6
:10184C000C0F5FD07E4B5B6803F00C03082B54D05D
:10185C002369002B00F08A807A4B01221A60FFF773
:10186C0081FF0546764B1B6813F0020F75D1FFF70D
:10187C0079FF401B0228F5D903209EE1704A1368BA
:10188C0043F480331360636843B3FFF76BFF054683
:10189C006B4B1B6813F4003FCBD1FFF763FF401B6E
:1018AC006428F5D9032088E1B3F5A02F09D0644B47
:1018BC001A6822F480321A601A6822F480221A60A4
:1018CC00E1E703F18043A3F53C331A6842F480222C
:1018DC001A601A6842F480321A60D4E7FFF742FFAC
:1018EC000546574B1B6813F4003FA2D0FFF73AFF95
:1018FC00401B6428F5D903205FE1514B5B6813F45E
:10190C00803FA5D14E4B1B6813F0020F03D0236907
:10191C00012B40F04F814A4A136823F0F8036169A8
:10192C0043EAC1031360236813F0080F33D0A36993
:10193C00002B5CD0434B0122C3F88024FFF712FF2D
:10194C0005463F4B5B6A13F0020F21D1FFF70AFFEC
:10195C00401B0228F5D903202FE1394A136823F0E4
:10196C00F803616943EAC1031360DCE7354B0022DD
:10197C001A60FFF7F7FE0546314B1B6813F0020F98
:10198C00D1D0FFF7EFFE401B0228F5D9032014E15C
:10199C000120FFF701FF236813F0040F00F096807D
:1019AC00274BDB6913F0805F34D1254BDA6942F0A9
:1019BC008052DA61DB6903F080530193019B0125AE
:1019CC00214B1B6813F4807F26D0E368012B3DD09C
:1019DC00002B53D103F1804303F504331A6A22F030
:1019EC0001021A621A6A22F004021A6233E0154BE1
:1019FC000022C3F88024FFF7B5FE0546104B5B6A46
:101A0C0013F0020FC7D0FFF7ADFE401B0228F5D92B
:101A1C000320D2E00025D3E70B4A136843F480730C
:101A2C001360FFF79FFE0646074B1B6813F4807F7D
:101A3C00CBD1FFF797FE801B6428F5D90320BCE0BF
:101A4C000010024000004242007000405F4A136ADE
:101A5C0043F001031362E36833B3FFF783FE0646DA
:101A6C005A4B1B6A13F0020F2FD1FFF77BFE801B22
:101A7C0041F288339842F3D903209EE0052B09D01C
:101A8C00524B1A6A22F001021A621A6A22F00402FC
:101A9C001A62E0E74D4B1A6A42F004021A621A6AA3
:101AAC0042F001021A62D6E7FFF75CFE0646474B8E
:101ABC001B6A13F0020F08D0FFF754FE801B41F293
:101ACC0088339842F3D9032077E0E5B9E369002B1A
:101ADC0072D03E4A526802F00C02082A56D0022BF1
:101AEC0017D03B4B00221A66FFF73CFE0446374BDF
:101AFC001B6813F0007F47D0FFF734FE001B022851
:101B0C00F5D9032059E0314AD36923F08053D361CE
:101B1C00DCE72F4B00221A66FFF724FE05462B4B01
:101B2C001B6813F0007F06D0FFF71CFE401B022839
:101B3C00F5D9032041E0236AB3F5803F1AD023493D
:101B4C004B6823F47413226A606A024313434B609C
:101B5C001F4B01221A66FFF705FE04461B4B1B6840
:101B6C0013F0007F0ED1FFF7FDFD001B0228F5D905
:101B7C00032022E0154A536823F40033A1680B4379
:101B8C005360DCE7002018E0002016E0012B16D093
:101B9C000E4B5B6803F48031226A914211D103F43D
:101BAC007013626A93420ED1002006E00120704748
:101BBC00012002E0012000E0002002B070BD0120F5
:101BCC00FBE70120F9E70120F7E700BF0010024016
:101BDC00000042420F4B5B6803F00C02082A01D054
:101BEC000D487047C3F383420C49885C13F4803F63
:101BFC000BD0084B5B68C3F34043094AD35C064ADD
:101C0C0002FB00F0B0FBF3F07047064B03FB00F057
:101C1C00704700BF0010024000127A002C380008F8
:101C2C002838000800093D00002800F0A08070B59D
:101C3C000D460446524B1B6803F007038B420BD234
:101C4C004F4A136823F007030B431360136803F028
:101C5C0007038B4240F08D80236813F0020F17D0DE
:101C6C0013F0040F04D0474A536843F4E063536005
:101C7C00236813F0080F04D0424A536843F46053AE
:101C8C005360404A536823F0F003A1680B43536040
:101C9C00236813F0010F31D06368012B20D0022B85
:101CAC0025D0384A126812F0020F64D035494A68C0
:101CBC0022F0030213434B60FFF754FD0646314BF1
:101CCC005B6803F00C036268B3EB820F16D0FFF76E
:101CDC0049FD801B41F288339842F0D9032045E03E
:101CEC00284A126812F4003FE0D101203EE0254A58
:101CFC00126812F0007FD9D1012037E0204B1B680D
:101D0C0003F00703AB420AD91D4A136823F00703FB
:101D1C002B431360136803F00703AB422DD12368E8
:101D2C0013F0040F06D0174A536823F4E063E168FC
:101D3C000B435360236813F0080F07D0114A536804
:101D4C0023F46053216943EAC1035360FFF742FF58
:101D5C000C4B5B68C3F303130B4AD35CD8400B4B9F
:101D6C0018600B4B1868FFF7B9FC002070BD012000
:101D7C0070470120FAE70120F8E70120F6E700BFE1
:101D8C000020024000100240443800081C000020D3
:101D9C0018000020014B1868704700BF1C00002081
:101DAC0008B5FFF7F7FF044B5B68C3F30223034A44
:101DBC00D35CD84008BD00BF001002403C3800087E
:101DCC0008B5FFF7E7FF044B5B68C3F3C223034A74
:101DDC00D35CD84008BD00BF001002403C3800085E
:101DEC0070B582B00024A4469EE07C4DAB4214D06A
:101DFC000CD8A5F58015AB420FD005F57025AB427C
:101E0C000BD0A5F58015AB421FD106E0744DAB424B
:101E1C0003D005F58035AB4217D18B68A3B1012BEC
:101E2C000DD04261082410E0CC680EE0CC6804347C
:101E3C000BE0CC68083408E0CC680C3405E0026197
:101E4C00082402E0002400E00424BEF1FF0F37D880
:101E5C0006464FEA8C0233680F25954023EA0503AA
:101E6C0004FA02F2134333604B6813F0805F59D0CD
:101E7C005C4B9A6942F001029A619B6903F0010381
:101E8C000193019B4FEA9C02951C574B53F825601C
:101E9C000CF00305AD000F23AB4026EA0306534BB1
:101EAC00984214D003F58063984279D003F580638F
:101EBC00984277D003F58063984206D0042307E05C
:101ECC00061DACF108029200C5E7032300E00023D5
:101EDC00AB4033430232444D45F822304B6813F487
:101EEC00801F61D0424A936843EA0E0393604B68AB
:101EFC0013F4001F5ED03E4AD36843EA0E03D3604E
:101F0C004B6813F4003F5BD0394A536843EA0E0325
:101F1C0053604B6813F4803F58D0354A136843EA3A
:101F2C000E0313600CF1010C0B6833FA0CF253D056
:101F3C00012202FA0CF203EA020E32EA0303F1D197
:101F4C004B68122B3FF651AF122B3FF67EAF01A51B
:101F5C0055F823F0271E0008351E00083F1E000808
:101F6C00511E0008571E0008571E0008571E000877
:101F7C00571E0008571E0008571E0008571E000861
:101F8C00571E0008571E0008571E0008571E000851
:101F9C00571E0008571E0008391E0008451E000871
:101FAC00012395E7022393E7114A936823EA0E0372
:101FBC0093609CE70E4AD36823EA0E03D3609FE735
:101FCC000B4A536823EA0E035360A2E7084A1368CE
:101FDC0023EA0E031360A5E702B070BD00002210C7
:101FEC0000003110001002400000014000080140C8
:101FFC00000401408368194201D001207047002081
:10200C0070470AB101617047090401617047C368E8
:10201C0001EA030221EA030141EA0241016170472E
:10202C00034690F82120022A06D004228263002263
:10203C0080F820200120704701680A6822F00E0207
:10204C000A6001680A6822F001020A60026CC06B27
:10205C00012101FA02F2426083F82110002083F87A
:10206C002000704708B590F82130022B03D00423D0
:10207C008363012008BD0268136823F00E0313600C
:10208C000268136823F0010313600368194A934232
:10209C0014D0143293421FD0143293421ED01432F7
:1020AC0093421ED0143293421ED01432934202D06B
:1020BC004FF0807203E04FF4801200E001220E4BCF
:1020CC005A60012380F82130002380F82030436BC4
:1020DC006BB198470020CDE71022F0E74FF48072E7
:1020EC00EDE74FF48052EAE74FF48032E7E7002047
:1020FC00C0E700BF0800024000000240002808DBD7
:10210C000901C9B200F1604000F5614080F800138C
:10211C00704700F00F000901C9B2014B1954704708
:10212C0014ED00E000B500F00700C0F1070CBCF1A5
:10213C00040F28BF4FF0040C031D062B0FD9C31E30
:10214C004FF0FF3E0EFA0CF021EA000199400EFA16
:10215C0003FE22EA0E0241EA02005DF804FB0023B2
:10216C00EEE70000074AD36823F4E0631B041B0C62
:10217C00000200F4E060034343F0BF6343F4003318
:10218C00D360704700ED00E010B50446054BD868ED
:10219C00C0F30220FFF7C6FF01462046FFF7AEFF53
:1021AC0010BD00BF00ED00E0002807DB00F01F02AF
:1021BC00400901239340024A42F82030704700BF87
:1021CC0000E100E00138B0F1807F0BD24FF0E0234A
:1021DC005861054AF02182F82310002098610722EB
:1021EC001A6170470120704700ED00E0704710B491
:1021FC00036A046A24F001040462846924F0F00C7C
:10220C004CEA021223F00A030B438261036210BCF6
:10221C00704710B4036A046A24F0100404628469E1
:10222C0024F4704C4CEA023223F0A00343EA01136D
:10223C008261036210BC7047836823F070030B4308
:10224C0043F007038360704790F83D30012B22D197
:10225C00022380F83D300368114A934210D0B3F149
:10226C00804F0DD0A2F59432934209D002F58062D2
:10227C00934205D01A6842F001021A6000207047A0
:10228C009A6802F00702062A07D01A6842F0010287
:10229C001A6000207047012070470020704700BF73
:1022AC00002C014003681F4A90420AD0B0F1804FC5
:1022BC0007D0A2F59432904203D002F5806290428E
:1022CC0003D123F070034A681343164A90420AD094
:1022DC00B0F1804F07D0A2F59432904203D002F5B2
:1022EC008062904203D123F44073CA68134323F0F5
:1022FC0080034A69134303608B68C3620B68836273
:10230C00084B98420AD001234361036913F0010F73
:10231C0003D0036923F00103036170470B69036366
:10232C00F1E700BF002C014040B310B5044690F813
:10233C003D30F3B1022384F83D30214651F8040BB3
:10234C00FFF7B0FF012384F8463084F83E3084F860
:10235C003F3084F8403084F8413084F8423084F8BF
:10236C00433084F8443084F8453084F83D30002004
:10237C0010BD80F83C30FFF727F9DBE701207047F0
:10238C0010B4846824F47F4C42EA03220A4342EAE4
:10239C000C02826010BC704790F83C30012B78D056
:1023AC0010B50446012380F83C30022380F83D3000
:1023BC000268936823F47F4323F0770393600B68E0
:1023CC00602B4CD023D8402B54D011D8202B03D0C9
:1023DC000AD80BB1102B05D119462068FFF72CFF3A
:1023EC00002028E0012026E0302BF5D0012022E04F
:1023FC00502B0AD1CA6849680068FFF7F8FE5021D3
:10240C002068FFF719FF002015E0012013E0B3F559
:10241C00805F3AD0B3F5005F14D0702B37D1CB6806
:10242C004A6889680068FFF7ABFF2268936843F03D
:10243C00770393600020012384F83D30002384F857
:10244C003C3010BDCB684A6889680068FFF798FF7C
:10245C002268936843F4804393600020EBE7CA68DA
:10246C0049680068FFF7D5FE60212068FFF7E4FE9D
:10247C000020E0E7CA6849680068FFF7B8FE402111
:10248C002068FFF7D9FE0020D5E70020D3E7012014
:10249C00D1E702207047000090F83C20012A2CD094
:1024AC0010B40346012280F83C20022280F83D2023
:1024BC0002685068946820F0700C086840EA0C00C0
:1024CC0050601A680E4882420AD0B2F1804F07D091
:1024DC00A0F59430824203D000F58060824204D192
:1024EC0024F08004496821439160012283F83D2047
:1024FC00002083F83C0010BC70470220704700BFDE
:10250C00002C0140026802F10C0353E8003F23F455
:10251C0090730C3242E800310029F3D1026802F1C9
:10252C00140353E8003F23F00103143242E8003156
:10253C000029F3D1036B012B05D0202380F8423006
:10254C00002303637047026802F10C0353E8003F59
:10255C0023F010030C3242E800310029F3D1ECE7F0
:10256C0090F84130212B01D0022070478368B3F5DD
:10257C00805F17D0036A5A1C02621A7803685A608B
:10258C00C38C9BB2013B9BB2C3844BB90268D3682A
:10259C0023F08003D3600268D36843F04003D36018
:1025AC00002070470369002BE4D1036A1B88026882
:1025BC00C3F308035360036A02330362E0E70000CD
:1025CC0010B504460268136923F44053C1680B43E9
:1025DC00136183680269134342691A430168CB682B
:1025EC0023F4B05323F00C031343CB6002685369FC
:1025FC0023F4407381690B4353610268134B9A4275
:10260C0020D0FFF7CDFB024602EB820202EB8202E6
:10261C0063689B00B2FBF3F20D48A0FB0231490941
:10262C00642303FB11231B013233A0FB03035B095F
:10263C0003F0F00202EB011203F00F0321681344C4
:10264C008B6010BDFFF7BCFB0246DDE70038014094
:10265C001F85EB512DE9F04383B005460E46174616
:10266C009946DDF828802B681C6836EA04040CBFF8
:10267C0001240024BC4228D1B8F1FF3FF3D0FFF76E
:10268C0071F8A0EB0900404523D8B8F1000F22D017
:10269C002B68DA6812F0040FE5D0802EE3D0402EC0
:1026AC00E1D01A6812F0080FDDD0002401941A68EA
:1026BC0001925B680193019B2846FFF723FF0823D7
:1026CC006B6485F84040012000E0002003B0BDE8B9
:1026DC00F0830320FAE70320F8E760B310B5044653
:1026EC0090F8413013B3242384F841302268D36826
:1026FC0023F40053D3602046FFF762FF226813696E
:10270C0023F4904313612268536923F02A03536125
:10271C002268D36843F40053D36000206064202304
:10272C0084F8413084F84230606310BD80F840304A
:10273C00FEF760FFD7E7012070472DE9F04182B02A
:10274C001E4690F84130202B56D104460D4690463B
:10275C00002955D00AB901204FE0002343642123FE
:10276C0080F84130FEF7FEFF0746A4F82480A4F859
:10277C002680A368B3F5805F02D04FF0000814E008
:10278C0023692BB34FF000080FE0202384F841306D
:10279C00032032E038F8023B2268C3F3080353608D
:1027AC00E28C92B2013A92B2E284E38C9BB293B186
:1027BC0000963B46002280212046FFF74BFF002865
:1027CC00E3D1002DE6D015F8012B23685A60E7E71A
:1027DC00A8460025E9E700963B460022402120460A
:1027EC00FFF738FF18B9202384F8413005E0202387
:1027FC0084F84130032000E0022002B0BDE8F081F3
:10280C000120FAE72DE9F04182B01E4690F84230E3
:10281C00202B5AD104460D469046002959D00AB9AE
:10282C00012053E000234364222280F842200363FA
:10283C00FEF798FF0746A4F82C80A4F82E80A36816
:10284C00B3F5805F02D04FF000081AE02369002B2B
:10285C0033D04FF0000814E0202384F842300320DA
:10286C0034E023685B68C3F3080328F8023B03E0F9
:10287C0023685B682B700135E28D92B2013A92B2FB
:10288C00E285E38D9BB2DBB100963B460022202112
:10289C002046FFF7DFFE0028DED1002DE1D0A36833
:1028AC00B3F5805FE4D013B92369002BE0D0236823
:1028BC005B6803F07F032B70DDE7A8460025E0E79B
:1028CC00202384F84230002000E0022002B0BDE852
:1028DC00F0810120FAE7704708B50168CA6822F058
:1028EC004002CA60202280F84120FFF7F4FF00204C
:1028FC0008BD704708B5406A0023C385C384FFF741
:10290C00F8FF08BD704790F84230222B69D18368DC
:10291C00B3F5805F4FD0826AB3F5805F04D0002B93
:10292C0056D10369002B53D103685B681370836A1B
:10293C0001338362C38D9BB2013B9BB2C385002BD9
:10294C0051D100B583B00268D36823F02003D36063
:10295C000268D36823F48073D3600268536923F050
:10296C0001035361202380F8423000234363036B3F
:10297C00012B33D100230363026802F10C0353E8EB
:10298C00003F23F010030C3242E800310029F3D150
:10299C0003681A6812F0100F06D0002201921A6810
:1029AC0001925B680193019B818DFFF7ABFF0020C7
:1029BC0003B05DF804FB0269002AACD1826A03689B
:1029CC005B68C3F308031380836A02338362B1E745
:1029DC0003685B6803F07F031370A8E7FEF732FC13
:1029EC00E5E70220704700207047000010B582B068
:1029FC00044602681368D068516913F00F0F09D1AF
:102A0C0013F0200F0CD010F0200F09D02046FFF748
:102A1C007AFF16E011F0010115D110F4907F12D15C
:102A2C00216B012979D013F0800F03D010F0800FA7
:102A3C0040F0138113F0400F03D010F0400F40F022
:102A4C00108102B010BD13F0010F06D010F4807F7E
:102A5C0003D0626C42F00102626413F0040F04D0E4
:102A6C0019B1626C42F00202626413F0020F04D0DE
:102A7C0019B1626C42F00402626413F0080F07D0C3
:102A8C0010F0200F00D119B1626C42F008026264A0
:102A9C00626C002AD5D013F0200F02D010F0200F5A
:102AAC0029D123685B6903F04003626C12F0080FB4
:102ABC0000D163B32046FFF725FD23685B6913F053
:102ACC00400F20D0226802F1140353E8003F23F09A
:102ADC004003143242E800310029F3D1E36B73B1A7
:102AEC00624A5A63E06BFFF7BDFA0028A9D0E06B8D
:102AFC00436B9847A5E72046FFF705FFD1E7204633
:102B0C00FFF7F7FE9DE72046FFF7F3FE99E7204617
:102B1C00FFF7EFFE0023636493E713F0100F82D0EE
:102B2C0010F0100F3FF47FAF002301931368019353
:102B3C0053680193019B536913F0400F51D0E26B22
:102B4C0013685B689BB2002B3FF47BAFA18D99425D
:102B5C007FF677AFE3859369202B37D0226802F19B
:102B6C000C0353E8003F23F480730C3242E800312D
:102B7C000029F3D1226802F1140353E8003F23F03B
:102B8C000103143242E800310029F3D1226802F12A
:102B9C00140353E8003F23F04003143242E80031A1
:102BAC000029F3D1202384F84230002323632268C8
:102BBC0002F10C0353E8003F23F010030C3242E8FF
:102BCC0000310029F3D1E06BFFF72AFA022363638B
:102BDC00A18DE38D9BB2C91A89B22046FFF792FEF4
:102BEC002FE7A18DE38D9BB2C91A89B2E38D9BB2FD
:102BFC00002B3FF426AF00293FF423AF226802F1EB
:102C0C000C0353E8003F23F490730C3242E800307D
:102C1C000028F3D1226802F1140353E8003F23F09B
:102C2C000103143242E800300028F3D1202384F849
:102C3C00423000232363226802F10C0353E8003F67
:102C4C0023F010030C3242E800300028F3D10223A9
:102C5C0063632046FFF756FEF3E62046FFF780FC41
:102C6C00EFE62046FFF738FEEBE600BF012900082F
:102C7C0081628285C28500234364222380F842301E
:102C8C00036923B10268D36843F48073D36002688C
:102C9C00536943F0010353610268D36843F0200386
:102CAC00D3600020704708B590F84230202B08D133
:102CBC0049B10AB9012008BD00230363FFF7D8FF0F
:102CCC00F9E70220F7E70120F5E7000010B504460C
:102CDC000A2304220749FFF730FDFA23192206497B
:102CEC002046FFF78FFD48222146044800F0FAF8F1
:102CFC0010BD00BF2000002010030020C8020020DF
:102D0C0070B50546364E1423082236493046FFF777
:102D1C0014FD354CFA23192221463046FFF772FD7B
:102D2C00E078237943EA0020FDF734FB00222F4B97
:102D3C00FDF7D4FCFDF7BAFD28606279A37943EA6C
:102D4C000223E27943EA0263207A43EA0040FDF76A
:102D5C0021FB0022264BFDF7C1FCFDF7A7FD6860A7
:102D6C00627AA37A43EA0223E27A43EA0263207B83
:102D7C0043EA0040FDF70EFB00221C4BFDF7AEFCB6
:102D8C00FDF794FDA860627BA37B43EA0223E27B00
:102D9C0043EA0263207C43EA0040FDF78DFE686144
:102DAC00607CA37C43EA0020FDF7F4FA00220F4B71
:102DBC00FDF794FCFDF77AFD2861E07C237D43EA66
:102DCC000020FDF7E7FA00220A4BFDF787FCFDF720
:102DDC006DFDE860627DA37D43EA02232B8370BD09
:102DEC00C802002024000020100300200000244012
:102DFC0000408F4000005940FFF7F8F90B480C4990
:102E0C000C4A002302E0D458C4500433C4188C423A
:102E1C00F9D3094A094C002301E013600432A242A1
:102E2C00FBD300F039F8FEF7D5FA7047000000200C
:102E3C007C000020983800087C00002078040020DA
:102E4C00FEE700000EB46FF0004110B500249DB0F9
:102E5C001FAB02900690079104910948094953F859
:102E6C00042B0591006802A901931B9400F09EF9B4
:102E7C00029B1C701DB0BDE8104003B0704700BF32
:102E8C002C0000200802FFFF03460244934200D1AD
:102E9C00704703F8011BF9E770B500260C4D0D4B7C
:102EAC005B1B9C10A64209D1002600F089FC0A4D40
:102EBC000A4B5B1B9C10A64205D170BD55F8043B18
:102ECC0098470136EEE755F8043B98470136F2E790
:102EDC0090380008903800089038000894380008A2
:102EEC00704770470A44914200F1FF3300D170479C
:102EFC0010B511F8014B914203F8014FF9D110BDF7
:102F0C0038B50546002940D051F8043C0C1F002B65
:102F1C00B8BFE41800F0DEF81C4A136833B96360DC
:102F2C0014602846BDE8384000F0DAB8A34208D94E
:102F3C00206821188B4201BF19685B680918216051
:102F4C00EDE71A465B680BB1A342FAD91168501829
:102F5C00A0420BD120680144501883421160E0D18B
:102F6C0018685B68084410605360DAE702D90C23D8
:102F7C002B60D6E7206821188B4201BF19685B686B
:102F8C000918216063605460CBE738BD70040020E1
:102F9C0070B50F4E0C463168054611B900F0AEFB0A
:102FAC0030602146284600F0A9FB431C03D14FF0AA
:102FBC00FF34204670BDC41C24F00304A042F8D09A
:102FCC00211A284600F09AFB0130F2D1EFE700BF3E
:102FDC006C0400202DE9F843CD1C25F003050835C1
:102FEC000C2D38BF0C25002D064601DBA94204D957
:102FFC000C2333600020BDE8F883DFF8D48000F0A8
:10300C0069F8D8F800301C4644BB29463046FFF717
:10301C00BFFF431C044658D1D8F800402746002F68
:10302C0043D1002C4BD023683946304604EB0309BE
:10303C0000F064FB814542D1216830466D1A294667
:10304C00FFF7A6FF01303AD023682B442360D8F851
:10305C0000305A6862BBC8F800700FE02268521B3F
:10306C0020D40B2A17D96119A342256018BF5960C7
:10307C00636808BFC8F8001062514B60304600F01E
:10308C002FF804F10B00231D20F00700C21A1CBFFF
:10309C001B1AA350AFE76268A3420CBFC8F800200C
:1030AC005A60EBE723466468AEE73C467F68B6E7B8
:1030BC001A465B68A342FBD100235360DEE70C2366
:1030CC003046336000F00CF894E70560D6E700BF9B
:1030DC00700400200148FFF703BF00BF6804002004
:1030EC000148FFF7FEBE00BF680400202DE9F04741
:1030FC001F468E688246BE420C469046334653D8D5
:10310C00B1F90C0010F4906F2BD065692368096934
:10311C0005EB4505A3EB010905EBD5757B1C6D1083
:10312C004B44AB422A4684BF1D462A46430527D54D
:10313C0011465046FFF74EFF064658B34A462169E2
:10314C00FFF7D0FEA38923F4906343F08003A3819F
:10315C0026614E4426603B463E466561A5EB09055B
:10316C00A5601F463A464146206800F0ADFA0020A3
:10317C00A3689B1BA36023683B442360BDE8F087D6
:10318C00504600F0D9FA06460028E1D15046216994
:10319C00FFF7B6FE0C23CAF80030A3894FF0FF30BE
:1031AC0043F04003A381E9E73E46DBE72DE9F04F0E
:1031BC0098468B8907461B060D4614469DB010D5C4
:1031CC000B6973B94021FFF705FF2860286130B9FE
:1031DC000C233B604FF0FF301DB0BDE8F08F402357
:1031EC006B610023099320238DF8293030234FF095
:1031FC000109CDF80C80DFF898818DF82A30234630
:10320C009A4613F8012B0AB1252AF9D1BAEB040B13
:10321C000BD05B46224629463846FFF767FF013044
:10322C0000F0A780099A5A4409929AF80030002BB2
:10323C0000F09F8000234FF0FF32CDE905230AF107
:10324C00010A049307938DF853301A9354460522C0
:10325C0014F8011B4E4800F061FA049AD8B9D00654
:10326C0044BF20238DF85330110744BF2B238DF816
:10327C0053309AF800302A2B15D0544600204FF0CA
:10328C000A0C079A214611F8013B303B092B4BD90C
:10329C00B0B1079214E0A0EB080309FA03F313434F
:1032AC00A2460493D2E7039B191D1B680391002BC4
:1032BC00BBBF5B4242F0020207930793B8BF049274
:1032CC0023782E2B0AD163782A2B32D1039B02341C
:1032DC001A1D1B68039243EAE3730593DFF8B4A04D
:1032EC0003225046217800F019FA38B14022049B91
:1032FC00A0EB0A00824013430134049314F8011B21
:10330C00062225488DF8281000F008FA002836D03F
:10331C00224B1BBB039B073323F007030833039398
:10332C00099B334409936AE70C4601200CFB0232DB
:10333C00A8E700234FF00A0C1946013405932046E8
:10334C0010F8012B303A092A03D9002BC6D005916D
:10335C00C4E7044601230CFB0121F0E703AB009307
:10336C002A4638460E4B04A9AFF30080421C064691
:10337C00D6D1AB895B063FF52DAF09982CE703AB93
:10338C0000932A463846064B04A900F07DF8EDE779
:10339C00543800085A3800085E3800080000000055
:1033AC00F93000082DE9F047164698468A680B69F3
:1033BC0007469342B8BF1346336091F843200C463E
:1033CC00DDF820900AB1013333602368990642BFBF
:1033DC00336802333360256815F0060506D104F115
:1033EC00190AE36832689B1AAB422BDC94F8433021
:1033FC002268003B18BF0123920630D44146384660
:10340C0004F14302C847013023D02368226903F03A
:10341C000603042B14BF002533684FF0000608BFC9
:10342C00E56804F11A0408BFED1A54F8123C08BF01
:10343C0025EAE5759342C4BF9B1AED18B5421AD123
:10344C00002008E00123524641463846C847013067
:10345C0003D14FF0FF30BDE8F0870135C1E73020D4
:10346C00E11881F843005A1C94F8451022440233A9
:10347C0082F84310C2E70123224641463846C8472A
:10348C000130E6D00136D9E72DE9FF470F7E914692
:10349C00782F80460C469A460C9E01F1430207D8C1
:1034AC00622F0AD8002F00F0D280582F00F0B7807E
:1034BC0004F1420684F842703AE0A7F16303152B3D
:1034CC00F6D801A151F823F02D350008413500083C
:1034DC00BD340008BD340008BD340008BD340008FC
:1034EC0041350008BD340008BD340008BD34000867
:1034FC00BD340008413600086B350008F73500086C
:10350C00BD340008BD34000863360008BD34000823
:10351C006B350008BD340008BD340008FF350008C9
:10352C0033681A1D1B68326004F1420684F842307D
:10353C0001239DE033682068191D3160060601D512
:10354C001D6803E04506FBD5B3F90050002D03DAE6
:10355C002D236D4284F843300A23594810E021682A
:10356C003368080653F8045B02D4490648BFADB271
:10357C006F2F5348336059D10823002184F843102E
:10358C006668002EA66005DB21682E4321F004013D
:10359C0021604DD01646B5FBF3F103FB1157C75D07
:1035AC0006F8017D2F46BB420D46F4D9082B0BD1F2
:1035BC002368DF0708D5236961689942DEBF302391
:1035CC0006F8013C06F1FF36921B22614B46214660
:1035DC004046CDF800A003AAFFF7E4FE01304CD121
:1035EC004FF0FF3004B0BDE8F087236843F02003B0
:1035FC0023607827334884F84570236831681F06A8
:10360C0051F8045B02D45F0648BFADB23160D907F4
:10361C0044BF43F0200323601DB11023ADE72848BD
:10362C00E9E7236823F020032360F6E70A23A4E7E5
:10363C001646BBE733682568181D616930602E0695
:10364C001B6801D5196002E06806FBD519800023C0
:10365C0016462361BAE7336800211A1D32601E68D2
:10366C006268304600F05AF808B1801B60606368ED
:10367C002361002384F84330A8E73246494640468C
:10368C002369D0470130ABD023689B0713D4E06883
:10369C00039B9842B8BF1846A4E70123324649461B
:1036AC004046D04701309BD00135E36803995B1A43
:1036BC00AB42F2DCEBE7002504F11906F5E700BF9D
:1036CC006538000876380008884210B501EB020412
:1036DC0002D98442234607D8431EA14207D011F8D1
:1036EC00012B03F8012FF8E70244824200D110BDF0
:1036FC0013F8011D02F8011DF7E7000038B500238F
:10370C00054D044608462B6000F04CF8431C02D1D2
:10371C002B6803B1236038BD64040020034610B548
:10372C00C9B202449342184601D1002003E0047848
:10373C0001338C42F6D110BD2DE9F04107461446F9
:10374C000D4621B91146BDE8F041FFF743BC2AB93B
:10375C00FFF7D6FB25462846BDE8F08100F01AF8A5
:10376C008442064602D8B4EB500FF4D821463846B2
:10377C00FFF730FC804608B94546ECE7B4422246D8
:10378C00294628BF3246FFF7ADFB29463846FFF7DE
:10379C00B7FBF1E751F8043C181F002BBCBF0B58CA
:1037AC00C0187047044A05491368002B08BF0B4624
:1037BC0018441060184670477404002078040020E8
:1037CC00F8B500BFF8BC08BC9E467047F8B500BF02
:0837DC00F8BC08BC9E467047D2
:1037E40054656D703A204E2F412C2052483A204E99
:1037F4002F41000049443A25732C543A252E326651
:103804002C483A252E32662C453A252E32662C4316
:103814003A252E32662C563A252E32662C503A25FD
:103824002E3266000102000002030405060708099F
:103834000A0B0C0D0E0F101000000000010203040F
:10384400000000000000000001020304060708094C
:10385400232D302B2000686C4C0065666745464775
:1038640000303132333435363738394142434445F8
:103874004600303132333435363738396162636467
:043884006566000075
:0838880084C8FF7F010000006D
:04389000690F0008B4
:04389400410F0008D8
:10389800523131000000000000000000000000006C
:1038A80000000000010000001000000000127A0073
:1038B800F842C241F8040000000A646430000020A5
:1038C800000000002C03002094030020FC030020CB
:1038D80000000000000000000000000000000000E0
:1038E80000000000000000000000000000000000D0
:1038F80000000000000000000000000000000000C0
:0C390800000000000000000000000000B3
:0400000508002E05BC
:00000001FF
